:100000000C942A000C9447000C9447000C94470071
:100010000C9447000C9447000C9447000C94470044
:100020000C9447000C9447000C9447000C94340443
:100030000C9447000C94EA040C94A8040C94470018
:100040000C9447000C9447000C9447000C94470014
:100050000C94470011241FBECFE5D8E0DEBFCDBF12
:1000600010E0A0E6B0E0EEE3F8E102C005900D92EA
:10007000A638B107D9F710E0A6E8B0E001C01D929C
:10008000A73FB107E1F70E9408070C941D0C0C94E0
:100090000000FC0161830895FC0181810895FB014A
:1000A00060810E94CE020895DF92EF92FF920F933B
:1000B0001F93DF93CF93CDB7DEB78AE0E82EF12C04
:1000C000EC0EFD1ED7011D917D018091F0000E9474
:1000D000A302D701ED91FC91DD24112311F4DD245D
:1000E000D39487014D2D60818091F0000E94CE0253
:1000F000D8011296ED91FC9113970E5F1F4F309728
:1001000089F7CF91DF911F910F91FF90EF90DF90D2
:100110000895FC0180810E940D03089582E090E023
:100120000E94DA0AFC0120916000208330E0220F57
:10013000331F2093600008958FEF8093F00008959F
:100140000E94E80208950E9424028093F0008F3FED
:1001500021F00E949702FC010995089578948FEF91
:100160008093F0000E9424028093F0008F3FD1F32F
:100170000E949702FC0109950E9424028093F000DE
:100180008F3FB1F7EFCF982FFB01F89480818F3F1D
:10019000D9F0DB01119681818F3FB9F0DB01129616
:1001A00082818F3F91F0DB01139683818F3F69F04D
:1001B000DB01149684818F3F41F0DB011596858128
:1001C0008F3F19F078940895DB019C9378940895FB
:1001D000982FFB01F8948081891789F08181891714
:1001E00099F082818917A9F083818917B9F08481F8
:1001F0008917C9F085818917D9F0789408958FEF10
:1002000080838181891769F78FEF818382818917C4
:1002100059F78FEF82838381891749F78FEF8383A3
:100220008481891739F78FEF84838581891729F7AE
:100230008FEF858378940895982FFB01808189172B
:1002400091F08181891779F08281891761F083812A
:10025000891749F08481891731F020E08581891759
:1002600011F0822F089521E0822F0895FC018081F2
:100270008F3F01F190E0292F2F5F81818F3F01F1A6
:10028000292F2F5F82818F3F09F1292F2F5F8381D3
:100290008F3F11F1292F2F5F84818F3F19F1292F73
:1002A0002F5F30E085818F3F21F1892F863021F14A
:1002B000832F089591E0292F2F5F81818F3F01F7D0
:1002C000922F292F2F5F82818F3FF9F6922F292FAE
:1002D0002F5F83818F3FF1F6922F292F2F5F84812B
:1002E0008F3FE9F6922F292F2F5F30E085818F3FD6
:1002F000E1F6822F8630E1F631E0832F08950F93E7
:100300001F93CF93DF93EC0188818F3F29F00E94E8
:100310008C028F3F09F053C01FEF00E089818F3FAF
:1003200029F00E948C02811708F446C08A818F3F11
:1003300021F00E948C028117E0F18B818F3F21F028
:100340000E948C02811790F18C818F3F21F00E94D6
:100350008C02811740F18D818F3F21F00E948C0229
:100360008117F0F01F3FB9F0F8948881081751F118
:100370008981081761F18A81081771F18B8108174B
:1003800081F18C81081791F18D810817A1F1789482
:10039000802F0E944B02DF91CF911F910F91089502
:1003A0000D81182FDFCF0C81182FD5CF0B81182F7F
:1003B000CBCF0A81182FC1CF0981182FB7CF088161
:1003C000182FACCF8FEF888389810817A1F68FEFA4
:1003D00089838A81081791F68FEF8A838B810817AA
:1003E00081F68FEF8B838C81081771F68FEF8C83EA
:1003F0008D81081761F68FEF8D83C9CFFC01808155
:10040000811181E00895FC018081815080830895ED
:10041000FC0180818F5F808308959C012F5F3F4F97
:10042000C90108951F93182F87E090E00E94DA0A0F
:10043000FC0110838FEF868385838483838382838B
:1004400081838E2F1F910895F89440918600442354
:1004500001F120E05FEF3FEFE22FF0E0EE0FFF1F32
:10046000E957FF4F0190F081E02D8281938103973E
:1004700031F0E32F2F5F241749F03E2FEDCFE181BC
:10048000E317B8F7522F2F5F2417B9F77894852F09
:1004900008955FEFFBCFE82FF0E0EE0FFF1FE95765
:1004A000FF4F0190F081E02D83E090E09383828301
:1004B0000895E82FF0E0EE0FFF1FE957FF4F01907E
:1004C000F081E02D84E090E0938382830895E82F0B
:1004D000F0E0EE0FFF1FE957FF4F0190F081E02D94
:1004E000828193819583848384E090E093838283E7
:1004F0000895E82FF0E0EE0FFF1FE957FF4F01903E
:10050000F081E02D82819381049709F00895848120
:100510009581938382830895E82FF0E0EE0FFF1F0B
:10052000E957FF4F0190F081E02D81810895E82F78
:10053000F0E0EE0FFF1FE957FF4F0190F081E02D33
:10054000828593850895E82FF0E0EE0FFF1FE957AD
:10055000FF4FA081B18117961C92A081B1811696A0
:100560001C920190F081E02D82819381029709F025
:10057000089583E090E0938382830895E82FF0E06C
:10058000EE0FFF1FE957FF4F0190F081E02D7187BB
:10059000608781E090E0938382830895E82FF0E004
:1005A000EE0FFF1FE957FF4FA081B18116968C9186
:1005B0001697862B16968C93A081B18117964C9333
:1005C0000190F081E02D82E090E093838283089592
:1005D00030918600332301F120E043E050E003C076
:1005E0002F5F3217C9F0E22FF0E0EE0FFF1FE9573F
:1005F000FF4F0190F081E02D82819381019781F777
:1006000080859185019791878087892B49F753834E
:1006100042832F5F321739F708950F931F93CF93BB
:10062000DF93582F409186004423D9F130E0682FA2
:10063000609503E010E0E32FF0E0EE0FFF1FEF0105
:10064000C957DF4FA881B98116962C911697852F2F
:10065000822321F112968D919C9113970497F1F0CA
:10066000262316962C93A881B98117968C911797FB
:10067000882329F416968C911697882379F4179677
:100680001C92E957FF4FA081B18116961C920190F0
:10069000F081E02D82819381029741F03F5F341712
:1006A00051F6DF91CF911F910F910895138302832B
:1006B000F5CFFF920F931F938C01F62E8CE090E004
:1006C0000E94DA0ADC01209186002C931196FC929C
:1006D000119783E090E013969C938E931297169651
:1006E0001C92169717961C92179719961C921E9299
:1006F00018971B961C930E931A97E22FF0E0EE0FBB
:10070000FF1FE957FF4FB183A0832F5F209386001F
:100710008C911F910F91FF900895EF92FF920F938C
:100720001F9313BE20E034E244EF50E00E94DC0B44
:1007300028EE33E040E050E00E94FB0B122F032F25
:10074000F42EE52EC901DA019C01AD01DA01C901DF
:100750000197A109B1098F3F9105A105B10508F4E1
:100760006CC0612F702F8F2D9E2D28E030E040E06F
:1007700050E00E94FB0BC901DA019C01AD01DA01D6
:10078000C9010197A109B1098F3F9105A105B105E3
:1007900008F462C0612F702F8F2D9E2D20E430E071
:1007A00040E050E00E94FB0BC901DA019C01AD0161
:1007B000DA01C9010197A109B1098F3F9105A1058E
:1007C000B10508F44BC0612F702F8F2D9E2D20E0B6
:1007D00031E040E050E00E94FB0BC901DA019C01CE
:1007E000AD01DA01C9010197A109B1098F3F910556
:1007F000A105B105A8F1612F702F8F2D9E2D20E04E
:1008000034E040E050E00E94FB0BC901DA019C019A
:10081000AD01DA01C9010197A109B1098F3F910525
:10082000A105B105F8F012BE85E083BF81E089BF64
:100830001F910F91FF90EF90089590E0822F819586
:100840008093930082BF9F5F93BF81E089BF1F9118
:100850000F91FF90EF90089591E0F0CF92E0EECFEE
:1008600093E0ECCF94E0EACF1F920F920FB60F9275
:1008700011242F933F934F935F936F937F938F93A5
:100880009F93AF93BF93EF93FF938091930082BFA9
:100890000E94A000FF91EF91BF91AF919F918F9126
:1008A0007F916F915F914F913F912F910F900FBE6C
:1008B0000F901F90189510BC26E129B928E92AB994
:1008C00026E820BD1092B4001092B5002FE12093CD
:1008D000B6001092D7001092D8002093D900109241
:1008E000DA009093DC008093DB000895DC01309106
:1008F000D900361760F19091D700262FE92FF0E04C
:10090000E954FF4F8D9180839F5F9F712150B1F714
:100910009093D700361B632F3093D9008091DA0073
:100920008823A9F45D9BFECFE091D8008E2F8F5FC6
:100930008F718093D80081E08093DA006F5F6093BD
:10094000D900F0E0E954FF4F80818CB9559A0895A1
:100950001F920F920FB60F9211248F93EF93FF9374
:10096000E091D8008091D700E817B9F08E2F8F5F03
:100970008F718093D8008091D9008F5F8093D900C8
:10098000F0E0E954FF4F80818CB9FF91EF918F9196
:100990000F900FBE0F901F90189555981092DA0087
:1009A000FF91EF918F910F900FBE0F901F901895B0
:1009B0005D9BFECF8CB90895DC018091B500E4E920
:1009C000F0E0E80FF11D90819C938F5F8F71809311
:1009D000B50008951F920F920FB60F9211242F9316
:1009E0003F934F935F936F937F938F939F93AF93B7
:1009F000BF93EF93FF938091B4009CB1E4E9F0E0E2
:100A0000E80FF11D90838F5F8F718093B400E091A8
:100A1000DB00F091DC000995FF91EF91BF91AF9160
:100A20009F918F917F916F915F914F913F912F9106
:100A30000F900FBE0F901F9018959091F200933079
:100A4000D9F1943078F0953031F19530B8F0963096
:100A500039F1892F8F5F8093F200873070F0109208
:100A6000F2000895913019F1923080F08CE885BB46
:100A70008BE28BBB9F5F9093F200089589EA85BB60
:100A80008AE48BBB9F5F9093F20008958CE885BB4E
:100A90008FE08BBBF7CF8EEA85BB88E58BBBF2CFAF
:100AA00089ED85BB8FE68BBB1092F20008958AEC2E
:100AB00085BB88E18BBBE6CF8FEF85BB88E38BBB23
:100AC000E1CF9091F200E92FF0E0EE0FFF1FEA591D
:100AD000FF4F808185BB81818BBB9F5F9093F2002C
:100AE000973010F01092F2000895BC011816190604
:100AF0000CF078C0E091EA008091EB00482F50E0C4
:100B00002E2F30E087E090E0841B950B28173907E3
:100B100009F4AAC08E2F860F8093EA009A01280F4D
:100B2000311D4115510521F04217530709F466C0E4
:100B3000809167008860809367004115510531F00E
:100B4000C901841B950B019709F460C0809169006D
:100B50008860809369004115510531F0C901841BFB
:100B6000950B029709F45AC080916B0088608093BE
:100B70006B004115510531F0C901841B950B03979A
:100B800009F454C080916D00886080936D00411518
:100B9000510531F0C901841B950B049709F44EC02F
:100BA00080916F00886080936F004115510531F08E
:100BB000C901841B950B059709F448C08091710009
:100BC0008860809371004115510531F0241B350B6D
:100BD0002630310509F442C080917300886080930B
:100BE00073000895009709F440C0E091EA00EE23F5
:100BF000C1F38091EB00482F50E08CCF80916700CB
:100C0000877F809367004150504097CF8091690063
:100C1000877F80936900415050409DCF80916B0049
:100C2000877F80936B0041505040A3CF80916D002F
:100C3000877F80936D0041505040A9CF80916F0015
:100C4000877F80936F0041505040AFCF80917100FB
:100C5000877F8093710041505040B5CF80917300E1
:100C6000877F8093730008950895E091EA00809152
:100C7000EB00482F50E04ECF7091E700E72FF0E0F7
:100C80006091ED00462F50E0CF01841B950B1816A4
:100C900019060CF07DC08091EE00282F30E087E02F
:100CA00090E0821B930B4817590709F4B0C0420F1C
:100CB000531F4E175F071CF46F5F6093ED007617AC
:100CC00018F461506093ED00A901460F511D2115E4
:100CD000310521F02417350709F463C080916600BF
:100CE0008160809366002115310531F0CA01821BB5
:100CF000930B019709F45DC0809168008160809337
:100D000068002115310531F0CA01821B930B02974F
:100D100009F457C080916A00816080936A002115B0
:100D2000310531F0CA01821B930B039709F451C0BE
:100D300080916C00816080936C002115310531F049
:100D4000CA01821B930B049709F44BC080916E007B
:100D5000816080936E002115310531F0CA01821B3C
:100D6000930B059709F445C08091700081608093D2
:100D700070002115310531F0421B530B46305105EF
:100D800009F43FC0809172008160809372000895E1
:100D9000892B11F06623D9F38091EE00282F30E0E3
:100DA00086CF809166008E7F809366002150304010
:100DB0009ACF809168008E7F8093680021503040E8
:100DC000A0CF80916A008E7F80936A0021503040CE
:100DD000A6CF80916C008E7F80936C0021503040B4
:100DE000ACCF80916E008E7F80936E00215030409A
:100DF000B2CF809170008E7F809370002150304080
:100E0000B8CF809172008E7F80937200089508950C
:100E10009FEF9ABB94BB80EE87BB8FEC8BBB80E6C9
:100E200088BB91BB80EF82BBC59A1092E50089E038
:100E30008093E4001092F2001092F10082E080931F
:100E4000EA008093EB008093ED008093EE00109217
:100E5000E6008093E70081E08093E8008093E9005A
:100E60000E949C0081E00E9412029093E300809314
:100E7000E20061E085E999E00E94590362E08DE7B4
:100E800098E00E94590363E08BEA97E00E945903BF
:100E900064E081EB98E00E94590365E08DE597E0FE
:100EA0000E94590361E070E080E090E00E948D03B1
:100EB0000E94AE0080E090E008958091DD008B34C8
:100EC00051F1803519F18823F1F48091E5008A30E1
:100ED000E0F184E08093F100E091E40088B390ECCD
:100EE000892788BBF0E0EC58FF4F808182BB62E02D
:100EF00070E08091F0000E94BE028FEF8093F000BE
:100F00008BE48093DD0080E090E008951092DD0096
:100F100080E090E0089588B390EC892788BBE09149
:100F2000E500F0E0EC58FF4F808182BB62E070E0AA
:100F30008091F0000E94BE028FEF8093F00080E568
:100F40008093DD0080E090E00895E091E400EA30D5
:100F500008F0BFCFC3CF8091DF00853DE9F0843E2C
:100F6000B1F0882389F48091F100813009F445C003
:100F70006EE170E08091F0000E94BE028FEF8093DE
:100F8000F00084EE8093DF0080E090E008951092FE
:100F9000DF0080E090E00895C59AE091E90080913B
:100FA000E700E80FE093E7002091E600283088F49E
:100FB000F0E0EE0FFF1FEA59FF4F81E090E002C022
:100FC000880F991F2A95E2F78095208182238083DC
:100FD000CFCFF0E0EE0FFF1FEA59FF4F30E028506F
:100FE000304081E090E002C0880F991F2A95E2F717
:100FF0008095218182238183BBCF6091E600683098
:1010000008F448C07091E700472F50E0FA01EE0F56
:10101000FF1FEA59FF4F862F90E0089721E030E04C
:1010200002C0220F331F8A95E2F78181822B8183D0
:101030008091E800860F8093E6008B3009F445C06C
:10104000882389F48091ED00FA01E81BF109F7FD8E
:1010500036C08091EE0090E0E817F90784F5C59856
:1010600081E08093E800763011F0772331F48091AD
:10107000E90081958093E900C59864E170E0809172
:10108000F0000E94BE028FEF8093F00085ED809308
:10109000DF007ACF7091E700472F50E0FA01EE0FA2
:1010A000FF1FEA59FF4F81E090E0062E02C0880F33
:1010B000991F0A94E2F72081282B2083B9CF8091D1
:1010C000E4008F5F8093E400CBCF8091EA00FA01C7
:1010D000E81BF109F7FD0BC08091EB0090E0E817E9
:1010E000F9072CF4C5988FEF8093E800BCCF80916E
:1010F000E5008F5F8093E500F6CF8091E0008823C4
:10110000A9F48091F1008130C1F00E941D0561E0D9
:1011100070E08091F0000E94BE028FEF8093F0009B
:1011200084E68093E00080E090E008958436D9F76B
:101130001092E00080E090E008959091F200E92F95
:10114000F0E0EE0FFF1FEA59FF4F808185BB8181E0
:101150008BBB9F5F9093F2009730C8F21092F20021
:10116000D6CF8091DE00882309F099C07091E70006
:10117000E72FF0E06091ED00462F50E0CF01841B97
:10118000950B181619060CF091C08091EE00282FCF
:1011900030E087E090E0821B930B4817590709F471
:1011A0006FC0420F531F4E175F071CF46F5F6093B1
:1011B000ED00761718F461506093ED00A901460F19
:1011C000511D2115310521F04217530709F47DC047
:1011D000809166008160809366002115310531F0B1
:1011E000CA01821B930B019709F477C080916800B4
:1011F0008160809368002115310531F0CA01821B9E
:10120000930B029709F471C080916A00816080930A
:101210006A002115310531F0CA01821B930B039737
:1012200009F46BC080916C00816080936C00211583
:10123000310531F0CA01821B930B049709F465C094
:1012400080916E00816080936E002115310531F030
:10125000CA01821B930B059709F45FC0809170004F
:101260008160809370002115310529F0421B530BDA
:101270004630510521F180917200816080937200A7
:101280006AE570E08091F0000E94BE028FEF8093CB
:10129000F00081EF8093DE0080E090E00895813FD0
:1012A000D9F71092DE0080E090E00895892B11F0CC
:1012B000662331F38091EE00282F30E072CF8091C9
:1012C00072008E7F80937200DBCF809166008E7FEC
:1012D000809366002150304080CF809168008E7FDF
:1012E000809368002150304086CF80916A008E7FC5
:1012F00080936A00215030408CCF80916C008E7FAB
:1013000080936C002150304092CF80916E008E7F90
:1013100080936E002150304098CF809170008E7F76
:1013200080937000215030409ECF8091E1008C3737
:1013300009F4ADC08D3748F08F3709F4B9C08C3946
:1013400009F4A0C080E090E00895882309F482C0E9
:101350008537C1F7C59881E08093F1001092E500D0
:101360001092E4009091EA008091EB00282F30E089
:10137000A901490F511D2115310521F02417350709
:1013800009F4F5C08091670088608093670021159B
:10139000310531F0CA01821B930B019709F4DFC0BC
:1013A000809169008860809369002115310531F0D2
:1013B000CA01821B930B029709F4C9C080916B008C
:1013C000886080936B002115310531F0CA01821BC2
:1013D000930B039709F4B3C080916D0088608093EC
:1013E0006D002115310531F0CA01821B930B049762
:1013F00009F49DC080916F00886080936F00211573
:10140000310531F0CA01821B930B059709F487C09F
:10141000809171008860809371002115310531F051
:10142000421B530B4630510509F473C08091730081
:101430008860809373006FE070E08091F0000E94FC
:10144000BE028FEF8093F0008CE78093E10080E094
:1014500090E008958091F100882369F1843059F17A
:10146000813009F449C06FE070E08091F0000E9483
:10147000BE028FEF8093F0008CE98093E10080E062
:1014800090E008951092E10080E090E00895C59A00
:101490008091E2009091E3000E940D020E943601CB
:1014A0008823D9F08091E2009091E3000E94080225
:1014B0008091F100D5CFB499D3CF8091E200909183
:1014C000E3000E94FE01882309F45EC08091E200DF
:1014D0009091E3000E9403023DCF8091E200909141
:1014E000E3000E940D020E947F018FEF8093F000C5
:1014F0008FE78093E10026CF80E090E00E947505A1
:10150000B09B3DC0B199AFCF8FEF9FEF0E947505A3
:10151000AACF80917300877F809373008CCF8091D6
:101520007100877F809371002150304076CF809189
:101530006F00877F80936F002150304060CF809193
:101540006D00877F80936D00215030404ACF80919D
:101550006B00877F80936B002150304034CF8091A7
:101560006900877F80936900215030401ECF8091B1
:101570006700877F809367002150304008CF81E06B
:1015800090E00E947505BECF8091F0000E94590244
:101590008091E2009091E3000E940D02BC018091D5
:1015A000F0000E94C3008FEF8093F00085E78093E6
:1015B000E100C8CECF93DF93BC018230910510F4D7
:1015C00062E070E0A091F500B091F600ED01E0E07E
:1015D000F0E040E050E021C08881998186179707AC
:1015E00069F48A819B81309719F09383828304C0C8
:1015F0009093F6008093F500FE0134C068177907D8
:1016000038F44115510519F08417950708F4AC0119
:10161000FE018A819B819C01E9012097E9F6411531
:101620005105A9F1CA01861B970B049708F4BA016A
:10163000E0E0F0E02AC08D919C9111978417950706
:10164000F9F46417750781F412968D919C911397A4
:10165000309719F09383828304C09093F6008093AF
:10166000F500FD0132964CC0CA01861B970BFD01A7
:10167000E80FF91F6193719302978D939C9340C07B
:10168000FD01828193819C01D9011097A1F680917F
:10169000F3009091F400892B41F4809181009091A6
:1016A00082009093F4008093F30040918300509166
:1016B00084004115510541F44DB75EB780917F001C
:1016C00090918000481B590B2091F3003091F40059
:1016D000CA01821B930B8617970780F0AB014E5F00
:1016E0005F4F8417950750F0420F531F5093F4003B
:1016F0004093F300F9016193719302C0E0E0F0E0E0
:10170000CF01DF91CF910895CF93DF93009709F434
:1017100050C0EC0122971B821A82A091F500B09173
:10172000F600109709F140E050E0AC17BD0708F152
:10173000BB83AA83FE0121913191E20FF31FAE1703
:10174000BF0779F48D919C911197280F391F2E5F57
:101750003F4F3983288312968D919C9113979B83D9
:101760008A834115510571F4D093F600C093F500BA
:1017700020C012968D919C911397AD01009711F0A6
:10178000DC01D3CFFA01D383C28321913191E20FDF
:10179000F31FCE17DF0769F488819981280F391F5D
:1017A0002E5F3F4FFA01318320838A819B8193838F
:1017B0008283DF91CF910895629FD001739FF001E2
:1017C000829FE00DF11D649FE00DF11D929FF00DD1
:1017D000839FF00D749FF00D659FF00D9927729F08
:1017E000B00DE11DF91F639FB00DE11DF91FBD0193
:1017F000CF0111240895A1E21A2EAA1BBB1BFD01E3
:101800000DC0AA1FBB1FEE1FFF1FA217B307E407DF
:10181000F50720F0A21BB30BE40BF50B661F771F37
:10182000881F991F1A9469F7609570958095909517
:0E1830009B01AC01BD01CF010895F894FFCFDC
:10183E0001000306080AFF0FFF1FFF2FFF3FFF4F98
:10184E00FF5FFF6F7E12BCB6D2E6EE32FEF6F720D9
:06185E0000F7000000008D
:00000001FF
